{
  "contractName": "Faucet",
  "abi": [
    {
      "anonymous": false,
      "inputs": [
        {
          "indexed": true,
          "internalType": "address",
          "name": "from",
          "type": "address"
        },
        {
          "indexed": false,
          "internalType": "uint256",
          "name": "amount",
          "type": "uint256"
        }
      ],
      "name": "Deposit",
      "type": "event"
    },
    {
      "anonymous": false,
      "inputs": [
        {
          "indexed": true,
          "internalType": "address",
          "name": "to",
          "type": "address"
        },
        {
          "indexed": false,
          "internalType": "uint256",
          "name": "amount",
          "type": "uint256"
        }
      ],
      "name": "Withdraw",
      "type": "event"
    },
    {
      "payable": true,
      "stateMutability": "payable",
      "type": "fallback"
    },
    {
      "constant": false,
      "inputs": [
        {
          "internalType": "uint256",
          "name": "withdrawAmount",
          "type": "uint256"
        }
      ],
      "name": "withdraw",
      "outputs": [],
      "payable": false,
      "stateMutability": "nonpayable",
      "type": "function"
    }
  ],
  "bytecode": "0x608060405234801561001057600080fd5b5061028d806100206000396000f3fe60806040526004361061001e5760003560e01c80632e1a7d4d1461006e575b3373ffffffffffffffffffffffffffffffffffffffff167fe1fffcc4923d04b559f4d29a8bfc6cda04eb5b0d3c460751c2402c5c5cc9109c346040518082815260200191505060405180910390a2005b34801561007a57600080fd5b506100a76004803603602081101561009157600080fd5b81019080803590602001909291905050506100a9565b005b67016345785d8a000081111561010a576040517f08c379a000000000000000000000000000000000000000000000000000000000815260040180806020018281038252602e81526020018061022b602e913960400191505060405180910390fd5b80471015610163576040517f08c379a000000000000000000000000000000000000000000000000000000000815260040180806020018281038252602f8152602001806101fc602f913960400191505060405180910390fd5b3373ffffffffffffffffffffffffffffffffffffffff166108fc829081150290604051600060405180830381858888f193505050501580156101a9573d6000803e3d6000fd5b503373ffffffffffffffffffffffffffffffffffffffff167f884edad9ce6fa2440d8a54cc123490eb96d2768479d49ff9c7366125a9424364826040518082815260200191505060405180910390a25056fe496e73756666696369656e742062616c616e636520696e2066617563657420746f2066756e64207769746864726177576974686472617720616d6f756e742063616e6e6f742062652067726561746572207468616e20302e3120455448a265627a7a72315820ebc56cd330132c71e1e95c4e98f6c7428ec6d2f03926f2a354f18de1b6c885ef64736f6c63430005100032",
  "source": "pragma solidity ^0.5.16;\r\n\r\nimport \"./Mortal.sol\";\r\n\r\ncontract Faucet {\r\n\r\n    // Define the events that can be emitted\r\n    event Withdraw(address indexed to, uint amount);\r\n    event Deposit(address indexed from, uint amount);\r\n\r\n    // Give out ether to anyone who asks\r\n    function withdraw(uint withdrawAmount) public {\r\n\r\n        // Limit the withdraw amount\r\n        require(withdrawAmount <= 0.1 ether, \"Withdraw amount cannot be greater than 0.1 ETH\");\r\n\r\n        // Check the faucet balance\r\n        require(address(this).balance >= withdrawAmount, \"Insufficient balance in faucet to fund withdraw\");\r\n\r\n        // Send the amount to the address that requested it\r\n        msg.sender.transfer(withdrawAmount);\r\n        emit Withdraw(msg.sender, withdrawAmount);\r\n    }\r\n\r\n    // Accept any incoming amount\r\n    function () external payable {\r\n        emit Deposit(msg.sender, msg.value);\r\n    }\r\n}",
  "sourcePath": "D:\\Projects\\mastering-ethereum\\contracts\\Faucet.sol",
  "compiler": {
    "name": "solc",
    "version": "0.5.16+commit.9c3226ce.Emscripten.clang"
  },
  "schemaVersion": "3.0.23",
  "updatedAt": "2020-06-29T18:54:05.046Z",
  "networkType": "ethereum",
  "devdoc": {
    "methods": {}
  },
  "userdoc": {
    "methods": {}
  }
}